{"abi":[{"type":"constructor","inputs":[],"stateMutability":"nonpayable"},{"type":"function","name":"completeTask","inputs":[{"name":"_taskId","type":"uint256","internalType":"uint256"}],"outputs":[],"stateMutability":"nonpayable"},{"type":"function","name":"createTask","inputs":[{"name":"_description","type":"string","internalType":"string"}],"outputs":[],"stateMutability":"payable"},{"type":"function","name":"getTask","inputs":[{"name":"_taskId","type":"uint256","internalType":"uint256"}],"outputs":[{"name":"","type":"tuple","internalType":"struct StakeTask.Task","components":[{"name":"id","type":"uint256","internalType":"uint256"},{"name":"description","type":"string","internalType":"string"},{"name":"stakeAmount","type":"uint256","internalType":"uint256"},{"name":"createAt","type":"uint256","internalType":"uint256"},{"name":"creator","type":"address","internalType":"address"},{"name":"completed","type":"bool","internalType":"bool"}]}],"stateMutability":"view"},{"type":"function","name":"getTasksCount","inputs":[],"outputs":[{"name":"","type":"uint256","internalType":"uint256"}],"stateMutability":"view"},{"type":"function","name":"tasks","inputs":[{"name":"","type":"uint256","internalType":"uint256"}],"outputs":[{"name":"id","type":"uint256","internalType":"uint256"},{"name":"description","type":"string","internalType":"string"},{"name":"stakeAmount","type":"uint256","internalType":"uint256"},{"name":"createAt","type":"uint256","internalType":"uint256"},{"name":"creator","type":"address","internalType":"address"},{"name":"completed","type":"bool","internalType":"bool"}],"stateMutability":"view"},{"type":"event","name":"TaskCompleted","inputs":[{"name":"taskId","type":"uint256","indexed":true,"internalType":"uint256"},{"name":"completer","type":"address","indexed":true,"internalType":"address"}],"anonymous":false},{"type":"event","name":"TaskCreated","inputs":[{"name":"taskId","type":"uint256","indexed":true,"internalType":"uint256"},{"name":"description","type":"string","indexed":false,"internalType":"string"},{"name":"stakeAmount","type":"uint256","indexed":false,"internalType":"uint256"},{"name":"creator","type":"address","indexed":true,"internalType":"address"}],"anonymous":false},{"type":"error","name":"OnlyCreatorCanComplete","inputs":[]},{"type":"error","name":"TaskAlreadyCompleted","inputs":[]},{"type":"error","name":"TaskDoesNotExist","inputs":[]}],"bytecode":{"object":"0x6080604052348015600e575f5ffd5b50610ec58061001c5f395ff3fe608060405260043610610049575f3560e01c8063111002aa1461004d5780631d65e77e146100695780638d977672146100a55780639f899273146100e6578063e1e2955814610110575b5f5ffd5b61006760048036038101906100629190610861565b610138565b005b348015610074575f5ffd5b5061008f600480360381019061008a91906108db565b6102a0565b60405161009c9190610a54565b60405180910390f35b3480156100b0575f5ffd5b506100cb60048036038101906100c691906108db565b610433565b6040516100dd96959493929190610ae9565b60405180910390f35b3480156100f1575f5ffd5b506100fa61052b565b6040516101079190610b4f565b60405180910390f35b34801561011b575f5ffd5b50610136600480360381019061013191906108db565b610536565b005b5f5f8054905090505f6040518060c001604052808381526020018481526020013481526020014281526020013373ffffffffffffffffffffffffffffffffffffffff1681526020015f151581525090505f81908060018154018082558091505060019003905f5260205f2090600502015f909190919091505f820151815f015560208201518160010190816101cd9190610d65565b5060408201518160020155606082015181600301556080820151816004015f6101000a81548173ffffffffffffffffffffffffffffffffffffffff021916908373ffffffffffffffffffffffffffffffffffffffff16021790555060a08201518160040160146101000a81548160ff02191690831515021790555050503373ffffffffffffffffffffffffffffffffffffffff16827f29c8f9924c46286774869ac7896e10bcaed1aaedfeea403b45bdf64cdd3f45ba8534604051610293929190610e34565b60405180910390a3505050565b6102a86106cb565b5f8054905082106102e5576040517fda319dff00000000000000000000000000000000000000000000000000000000815260040160405180910390fd5b5f82815481106102f8576102f7610e62565b5b905f5260205f2090600502016040518060c00160405290815f820154815260200160018201805461032890610b95565b80601f016020809104026020016040519081016040528092919081815260200182805461035490610b95565b801561039f5780601f106103765761010080835404028352916020019161039f565b820191905f5260205f20905b81548152906001019060200180831161038257829003601f168201915b505050505081526020016002820154815260200160038201548152602001600482015f9054906101000a900473ffffffffffffffffffffffffffffffffffffffff1673ffffffffffffffffffffffffffffffffffffffff1673ffffffffffffffffffffffffffffffffffffffff1681526020016004820160149054906101000a900460ff1615151515815250509050919050565b5f8181548110610441575f80fd5b905f5260205f2090600502015f91509050805f01549080600101805461046690610b95565b80601f016020809104026020016040519081016040528092919081815260200182805461049290610b95565b80156104dd5780601f106104b4576101008083540402835291602001916104dd565b820191905f5260205f20905b8154815290600101906020018083116104c057829003601f168201915b505050505090806002015490806003015490806004015f9054906101000a900473ffffffffffffffffffffffffffffffffffffffff16908060040160149054906101000a900460ff16905086565b5f5f80549050905090565b5f805490508110610573576040517fda319dff00000000000000000000000000000000000000000000000000000000815260040160405180910390fd5b5f5f828154811061058757610586610e62565b5b905f5260205f20906005020190508060040160149054906101000a900460ff16156105de576040517f7fba946d00000000000000000000000000000000000000000000000000000000815260040160405180910390fd5b806004015f9054906101000a900473ffffffffffffffffffffffffffffffffffffffff1673ffffffffffffffffffffffffffffffffffffffff163373ffffffffffffffffffffffffffffffffffffffff1614610666576040517f1599d58f00000000000000000000000000000000000000000000000000000000815260040160405180910390fd5b60018160040160146101000a81548160ff0219169083151502179055503373ffffffffffffffffffffffffffffffffffffffff16827fbb5889c77948badf90e8a5c73d55265e5f5d6e4837a79a78c5669691b897faed60405160405180910390a35050565b6040518060c001604052805f8152602001606081526020015f81526020015f81526020015f73ffffffffffffffffffffffffffffffffffffffff1681526020015f151581525090565b5f604051905090565b5f5ffd5b5f5ffd5b5f5ffd5b5f5ffd5b5f601f19601f8301169050919050565b7f4e487b71000000000000000000000000000000000000000000000000000000005f52604160045260245ffd5b6107738261072d565b810181811067ffffffffffffffff821117156107925761079161073d565b5b80604052505050565b5f6107a4610714565b90506107b0828261076a565b919050565b5f67ffffffffffffffff8211156107cf576107ce61073d565b5b6107d88261072d565b9050602081019050919050565b828183375f83830152505050565b5f610805610800846107b5565b61079b565b90508281526020810184848401111561082157610820610729565b5b61082c8482856107e5565b509392505050565b5f82601f83011261084857610847610725565b5b81356108588482602086016107f3565b91505092915050565b5f602082840312156108765761087561071d565b5b5f82013567ffffffffffffffff81111561089357610892610721565b5b61089f84828501610834565b91505092915050565b5f819050919050565b6108ba816108a8565b81146108c4575f5ffd5b50565b5f813590506108d5816108b1565b92915050565b5f602082840312156108f0576108ef61071d565b5b5f6108fd848285016108c7565b91505092915050565b61090f816108a8565b82525050565b5f81519050919050565b5f82825260208201905092915050565b8281835e5f83830152505050565b5f61094782610915565b610951818561091f565b935061096181856020860161092f565b61096a8161072d565b840191505092915050565b5f73ffffffffffffffffffffffffffffffffffffffff82169050919050565b5f61099e82610975565b9050919050565b6109ae81610994565b82525050565b5f8115159050919050565b6109c8816109b4565b82525050565b5f60c083015f8301516109e35f860182610906565b50602083015184820360208601526109fb828261093d565b9150506040830151610a106040860182610906565b506060830151610a236060860182610906565b506080830151610a3660808601826109a5565b5060a0830151610a4960a08601826109bf565b508091505092915050565b5f6020820190508181035f830152610a6c81846109ce565b905092915050565b610a7d816108a8565b82525050565b5f82825260208201905092915050565b5f610a9d82610915565b610aa78185610a83565b9350610ab781856020860161092f565b610ac08161072d565b840191505092915050565b610ad481610994565b82525050565b610ae3816109b4565b82525050565b5f60c082019050610afc5f830189610a74565b8181036020830152610b0e8188610a93565b9050610b1d6040830187610a74565b610b2a6060830186610a74565b610b376080830185610acb565b610b4460a0830184610ada565b979650505050505050565b5f602082019050610b625f830184610a74565b92915050565b7f4e487b71000000000000000000000000000000000000000000000000000000005f52602260045260245ffd5b5f6002820490506001821680610bac57607f821691505b602082108103610bbf57610bbe610b68565b5b50919050565b5f819050815f5260205f209050919050565b5f6020601f8301049050919050565b5f82821b905092915050565b5f60088302610c217fffffffffffffffffffffffffffffffffffffffffffffffffffffffffffffffff82610be6565b610c2b8683610be6565b95508019841693508086168417925050509392505050565b5f819050919050565b5f610c66610c61610c5c846108a8565b610c43565b6108a8565b9050919050565b5f819050919050565b610c7f83610c4c565b610c93610c8b82610c6d565b848454610bf2565b825550505050565b5f5f905090565b610caa610c9b565b610cb5818484610c76565b505050565b5b81811015610cd857610ccd5f82610ca2565b600181019050610cbb565b5050565b601f821115610d1d57610cee81610bc5565b610cf784610bd7565b81016020851015610d06578190505b610d1a610d1285610bd7565b830182610cba565b50505b505050565b5f82821c905092915050565b5f610d3d5f1984600802610d22565b1980831691505092915050565b5f610d558383610d2e565b9150826002028217905092915050565b610d6e82610915565b67ffffffffffffffff811115610d8757610d8661073d565b5b610d918254610b95565b610d9c828285610cdc565b5f60209050601f831160018114610dcd575f8415610dbb578287015190505b610dc58582610d4a565b865550610e2c565b601f198416610ddb86610bc5565b5f5b82811015610e0257848901518255600182019150602085019450602081019050610ddd565b86831015610e1f5784890151610e1b601f891682610d2e565b8355505b6001600288020188555050505b505050505050565b5f6040820190508181035f830152610e4c8185610a93565b9050610e5b6020830184610a74565b9392505050565b7f4e487b71000000000000000000000000000000000000000000000000000000005f52603260045260245ffdfea264697066735822122070afde778db61382a99777225d7ad1162b48838ecde8fa13d3fc4a09dad01e6c64736f6c634300081c0033","linkReferences":{}},"methodIdentifiers":{"completeTask(uint256)":"e1e29558","createTask(string)":"111002aa","getTask(uint256)":"1d65e77e","getTasksCount()":"9f899273","tasks(uint256)":"8d977672"},"id":0}